:020000040800F2
:1000000000400020C9930008391600083B1600087C
:100010003D1600083F1600084116000800000000C9
:10002000000000000000000000000000431600086F
:1000300000000000000000004516000847160008F8
:10004000119400084F16000811940008119400083C
:1000500011940008119400081194000811940008EC
:1000600011940008119400081194000811940008DC
:1000700011940008119400081194000811940008CC
:1000800011940008119400081194000811940008BC
:10009000119400084B16000855160008119400082A
:1000A000119400081194000811940008119400089C
:1000B000119400081194000811940008119400088C
:1000C00011940008119400084916000811940008C2
:0400D000119400087F
:1000D8000348044B834202D0034B03B118477047CF
:1000E800B0040020B00400200000000005480649C4
:1000F8000B1AD90F01EBA301491002D0034B03B12E
:1001080018477047B0040020B00400200000000029
:1001180010B5064C237843B9FFF7DAFF044B13B147
:100128000448AFF300800123237010BDB004002001
:10013800000000002894000808B5044B1BB10449CE
:100148000448AFF30080BDE80840CFE70000000096
:10015800B40400202894000890B589B000AFF86076
:100168007B600B46FB721346BB723A4B07F11004D7
:100178000FCB84E80F00FB7A102B07D0FB7A182BE3
:1001880004D0FB7A202B01D006235EE0324B5B685B
:10019800314A43F0090353602F4B32221A60BB7A6D
:1001A80043F01003DAB22C4B9A61FB7A202B0ED065
:1001B800202B10DC102B02D0182B04D00BE0264B80
:1001C8000022DA6008E0244B0422DA6004E0224BC3
:1001D8000822DA6000E000BF00BF1F4B5B6803F035
:1001E8000103002BF9D1FB7A1A46F9681B4800F085
:1001F80023FF194BDB68184A43F08203D36000BF22
:10020800154BDB6803F08003002BF9D1124BDB6838
:10021800114A23F00303D360BB7A012B05D0BB7AC4
:10022800022B02D0BB7A032B04D1102279680C4828
:1002380000F002FFBB7A032B06D10A4B1C4607F1DC
:1002480010030FCB84E80F00002318462437BD465F
:1002580090BD00BFCC960008002003404016034024
:10026800101603400016034080B584B000AFF86054
:100278007B600B467B8113467B727B7A002B0CD00C
:100288001F4BDB681E4A23F00303D3601C4BDB685B
:100298001B4A43F00103D3602AE0194BDB68184A74
:1002A80023F00303D360164B154ADB68D3601FE0C5
:1002B8001022F968134800F0BFFE114BDB68104AA2
:1002C80043F08003D36000BF0D4BDB6803F080036D
:1002D800002BF9D110220C49786800F0ADFE7B891B
:1002E800103B7B81FB681033FB607B6810337B60BD
:1002F8007B89002BDCD1002318461037BD4680BD12
:1003080000200340001003402010034080B400AFD9
:100318000B4B5B680A4A43F00103536000BF084B6C
:100328005B6803F00103002BF9D1054B5B68044AB5
:1003380023F00803536000231846BD4680BC70476D
:100348000020034081F0004102E000BF83F0004339
:1003580030B54FEA41044FEA430594EA050F08BF58
:1003680090EA020F1FBF54EA000C55EA020C7FEA1C
:10037800645C7FEA655C00F0E2804FEA5454D4EB99
:100388005555B8BF6D420CDD2C4480EA020281EA63
:10039800030382EA000083EA010180EA020281EA9B
:1003A8000303362D88BF30BD11F0004F4FEA0131ED
:1003B8004FF4801C4CEA113102D0404261EB4101FC
:1003C80013F0004F4FEA03334CEA133302D0524282
:1003D80063EB430394EA050F00F0A780A4F101043E
:1003E800D5F1200E0DDB02FA0EFC22FA05F2801878
:1003F80041F1000103FA0EF2801843FA05F359415E
:100408000EE0A5F120050EF1200E012A03FA0EFCDC
:1004180028BF4CF0020C43FA05F3C01851EBE37106
:1004280001F0004507D54FF0000EDCF1000C7EEB23
:1004380000006EEB0101B1F5801F1BD3B1F5001F61
:100448000CD349085FEA30004FEA3C0C04F1010480
:100458004FEA445212F5800F80F09A80BCF1004FA9
:1004680008BF5FEA500C50F1000041EB045141EA2B
:10047800050130BD5FEA4C0C404141EB0101013CF4
:1004880028BFB1F5801FE9D291F0000F04BF0146E3
:100498000020B1FA81F308BF2033A3F10B03B3F1B5
:1004A80020020CDA0C3208DD02F1140CC2F10C0245
:1004B80001FA0CF021FA02F10CE002F11402D8BFA3
:1004C800C2F1200C01FA02F120FA0CFCDCBF41EA6F
:1004D8000C019040E41AA2BF01EB0451294330BD3E
:1004E8006FEA04041F3C1CDA0C340EDC04F114041B
:1004F800C4F1200220FA04F001FA02F340EA0300F2
:1005080021FA04F345EA030130BDC4F10C04C4F137
:10051800200220FA02F001FA04F340EA0300294617
:1005280030BD21FA04F0294630BD94F0000F83F461
:10053800801306BF81F480110134013D4EE77FEA44
:10054800645C18BF7FEA655C29D094EA050F08BF90
:1005580090EA020F05D054EA000C04BF1946104671
:1005680030BD91EA030F1EBF0021002030BD5FEAB5
:10057800545C05D14000494128BF41F0004130BDDD
:1005880014F580043CBF01F5801130BD01F0004531
:1005980045F0FE4141F470014FF0000030BD7FEAA4
:1005A800645C1ABF194610467FEA655C1CBF0B469F
:1005B800024650EA013406BF52EA033591EA030FB6
:1005C80041F4002130BD00BF90F0000F04BF0021AE
:1005D800704730B54FF4806404F132044FF00005E1
:1005E8004FF0000150E700BF90F0000F04BF00215A
:1005F800704730B54FF4806404F1320410F00045C0
:1006080048BF40424FF000013EE700BF42004FEABA
:10061800E2014FEA31014FEA02701FBF12F07F4337
:1006280093F07F4F81F06051704732F07F4208BFEE
:10063800704793F07F4F04BF41F40021704730B5F5
:100648004FF4607401F0004521F000411CE700BF41
:1006580050EA010208BF704730B54FF000050AE0C4
:1006680050EA010208BF704730B511F0004502D5C5
:10067800404261EB41014FF4806404F132045FEAC7
:10068800915C3FF4D8AE4FF003025FEADC0C18BF70
:1006980003325FEADC0C18BF033202EBDC02C2F162
:1006A800200300FA03FC20FA02F001FA03FE40EAF4
:1006B8000E0021FA02F11444BDE600BF70B54FF0F8
:1006C800FF0C4CF4E06C1CEA11541DBF1CEA1355D6
:1006D80094EA0C0F95EA0C0F00F0DEF82C4481EA3E
:1006E800030621EA4C5123EA4C5350EA013518BF5E
:1006F80052EA033541F4801143F4801338D0A0FB4B
:1007080002CE4FF00005E1FB02E506F00042E0FBF7
:1007180003E54FF00006E1FB03569CF0000F18BFFD
:100728004EF0010EA4F1FF04B6F5007F64F54074A5
:1007380004D25FEA4E0E6D4146EB060642EAC62138
:1007480041EA55514FEAC52040EA5E504FEACE2EA5
:10075800B4F1FD0C88BFBCF5E06F1ED8BEF1004FA8
:1007680008BF5FEA500E50F1000041EB045170BD24
:1007780006F0004646EA010140EA020081EA030168
:10078800B4EB5C04C2BFD4EB0C0541EA045170BD64
:1007980041F480114FF0000E013C00F3AB8014F1DE
:1007A800360FDEBF002001F0004170BDC4F1000427
:1007B800203C35DA0C341BDC04F11404C4F12005A8
:1007C80000FA05F320FA04F001FA05F240EA020003
:1007D80001F0004221F0004110EBD37021FA04F639
:1007E80042EB06015EEA430E08BF20EAD37070BDF3
:1007F800C4F10C04C4F1200500FA04F320FA05F052
:1008080001FA04F240EA020001F0004110EBD37053
:1008180041F100015EEA430E08BF20EAD37070BDC3
:10082800C4F1200500FA05F24EEA020E20FA04F39C
:1008380001FA05F243EA020321FA04F001F000414B
:1008480021FA04F220EA020000EBD3705EEA430EBC
:1008580008BF20EAD37070BD94F0000F0FD101F0EB
:100868000046400041EB010111F4801F08BF013C24
:10087800F7D041EA060195F0000F18BF704703F062
:100888000046520043EB030313F4801F08BF013DE9
:10089800F7D043EA0603704794EA0C0F0CEA1355A5
:1008A80018BF95EA0C0F0CD050EA410618BF52EA5F
:1008B8004306D1D181EA030101F000414FF0000065
:1008C80070BD50EA410606BF1046194652EA430673
:1008D80019D094EA0C0F02D150EA013613D195EAE7
:1008E8000C0F05D152EA03361CBF104619460AD12F
:1008F80081EA030101F0004141F0FE4141F4700139
:100908004FF0000070BD41F0FE4141F4780170BD28
:1009180070B54FF0FF0C4CF4E06C1CEA11541DBF8D
:100928001CEA135594EA0C0F95EA0C0F00F0A7F88F
:10093800A4EB050481EA030E52EA03354FEA0131BC
:1009480000F088804FEA03334FF0805545EA1313CF
:1009580043EA12634FEA022245EA111545EA106597
:100968004FEA00260EF000419D4208BF964244F12E
:10097800FD0404F5407402D25B084FEA3202B61A4D
:1009880065EB03055B084FEA32024FF480104FF421
:10099800002CB6EB020E75EB030E22BFB61A754695
:1009A80040EA0C005B084FEA3202B6EB020E75EB28
:1009B800030E22BFB61A754640EA5C005B084FEA90
:1009C8003202B6EB020E75EB030E22BFB61A75465D
:1009D80040EA9C005B084FEA3202B6EB020E75EB68
:1009E800030E22BFB61A754640EADC0055EA060E29
:1009F80018D04FEA051545EA16754FEA06164FEA6C
:100A0800C30343EA52734FEAC2025FEA1C1CC0D117
:100A180011F4801F0BD141EA00014FF000004FF0A4
:100A2800004CB6E711F4801F04BF01430020B4F165
:100A3800FD0C88BFBCF5E06F3FF6AFAEB5EB030C1D
:100A480004BFB6EB020C5FEA500C50F1000041EB1A
:100A5800045170BD0EF0004E4EEA113114EB5C04E7
:100A6800C2BFD4EB0C0541EA045170BD41F48011BA
:100A78004FF0000E013C90E645EA060E8DE60CEAC2
:100A8800135594EA0C0F08BF95EA0C0F3FF43BAFDF
:100A980094EA0C0F0AD150EA01347FF434AF95EA96
:100AA8000C0F7FF425AF104619462CE795EA0C0F7A
:100AB80006D152EA03353FF4FDAE1046194622E747
:100AC80050EA410618BF52EA43067FF4C5AE50EA21
:100AD80041047FF40DAF52EA43057FF4EBAE12E711
:100AE8004FF0FF3C06E000BF4FF0010C02E000BFF2
:100AF8004FF0010C4DF804CD4FEA410C7FEA6C5CD5
:100B08004FEA430C18BF7FEA6C5C1BD001B050EA77
:100B1800410C0CBF52EA430C91EA030F02BF90EA62
:100B2800020F0020704710F1000F91EA030F58BF21
:100B3800994208BF90422CBFD8176FEAE37040F083
:100B4800010070474FEA410C7FEA6C5C02D150EA21
:100B5800013C07D14FEA430C7FEA6C5CD6D152EADC
:100B6800033CD3D05DF8040B704700BF84461046A1
:100B780062468C461946634600E000BF01B5FFF7A0
:100B8800B7FF002848BF10F1000F01BD4DF808ED70
:100B9800FFF7F4FF0CBF012000205DF808FB00BF41
:100BA8004DF808EDFFF7EAFF34BF012000205DF89B
:100BB80008FB00BF4DF808EDFFF7E0FF94BF0120E8
:100BC80000205DF808FB00BF4DF808EDFFF7CEFFE9
:100BD80094BF012000205DF808FB00BF4DF808ED28
:100BE800FFF7C4FF34BF012000205DF808FB00BFF9
:100BF8004FEA410212F5001215D211D56FF478733D
:100C0800B3EB625212D94FEAC12343F0004343EADF
:100C1800505311F0004F23FA02F018BF40427047BA
:100C28004FF00000704750EA013005D111F0004044
:100C380008BF6FF0004070474FF00000704700BFDA
:100C48004A0011D212F5001211D20DD56FF4787343
:100C5800B3EB62520ED44FEAC12343F0004343EA98
:100C6800505323FA02F070474FF00000704750EAE3
:100C7800013002D14FF0FF3070474FF0000070474D
:100C880053B94AB9002908BF00281CBF4FF0FF31EB
:100C98004FF0FF3000F08AB9ADF1080C6DE904CED1
:100CA80000F024F8DDF804E0DDE9022304B0704721
:100CB800D0B50C4B002206460F46FFF7FFFCFFF7A6
:100CC800BFFF0446FFF780FC074B0022FFF7F6FC46
:100CD80002460B4630463946FFF738FBFFF7B0FFB0
:100CE8002146D0BD0000F03D0000F0412DE9F0475D
:100CF800089E0D4604468E46002B40F082808A42AC
:100D0800174646D9B2FA82F24AB1C2F1200105FA71
:100D180002F320FA01F1974041EA030E94404FEAAA
:100D28001748230CBEFBF8FCB9B208FB1CEE43EADB
:100D38000E430CFB01F098420AD9FB180CF1FF3561
:100D480080F01681984240F21381ACF1020C3B44CA
:100D58001B1AA4B2B3FBF8F008FB103344EA0344AF
:100D680000FB01F1A14209D93C1900F1FF3380F0E1
:100D78000181A14240F2FE8002383C44641A40EAF4
:100D88000C4000211EB1D4400023C6E90043BDE851
:100D9800F08702B9FFDEB2FA82F2002A4FD1CB1BEC
:100DA8004FEA174E1FFA87F80121B3FBFEFC250C0A
:100DB8000EFB1C3345EA034508FB0CF3AB4207D98D
:100DC8007D190CF1FF3002D2AB4200F2E780844675
:100DD800ED1AA3B2B5FBFEF00EFB105543EA05442D
:100DE80008FB00F8A04507D93C1900F1FF3302D2EF
:100DF800A04500F2D7801846A4EB080440EA0C404E
:100E0800C0E78B4208D9002E00F0AF800021C6E968
:100E180000050846BDE8F087B3FA83F100294BD1F5
:100E2800AB4202D3824200F2B780841A65EB030317
:100E380001209E46002EAAD0C6E9004EA7E7C2F1BF
:100E4800200C01FA02F3974020FA0CF04FEA174EF3
:100E580021FA0CFC1843BCFBFEF1050C0EFB11CC6F
:100E68001FFA87F845EA0C4501FB08F3AB4204FA80
:100E780002F409D97D1901F1FF3C80F08B80AB4267
:100E880040F2888002393D44EB1A85B2B3FBFEF08C
:100E98000EFB103345EA034500FB08F3AB4207D9C4
:100EA8007D1900F1FF3C71D2AB426FD902383D4445
:100EB800EB1A40EA014178E7C1F1200C8B4022FA95
:100EC8000CF71F4320FA0CF405FA01F34FEA174E0A
:100ED80025FA0CF51C43230CB5FBFEF91FFA87F81D
:100EE8000EFB195543EA054509FB08FAAA4502FA1B
:100EF80001F200FA01F308D97D1909F1FF3047D250
:100F0800AA4545D9A9F102093D44A5EB0A05A4B2B1
:100F1800B5FBFEF00EFB105544EA054400FB08F84B
:100F2800A04507D93C1900F1FF352DD2A0452BD992
:100F380002383C4440EA0940A4EB0804A0FB0289BB
:100F48004C45C6464D4619D316D05EB1B3EB0E02DA
:100F580064EB050404FA0CFCCA404CEA0202CC40DB
:100F6800C6E900240021BDE8F087314630460EE787
:100F7800AC46EDE6184601E74345E6D2B8EB020E6B
:100F880069EB07050138E0E72846D3E760468FE7B5
:100F98008146BAE7614677E708464BE7ACF1020CB1
:100FA8003D4415E702383C4426E700BF704700BFC0
:100FB800002301461A46184600F028B938B50A4CED
:100FC8000A4D641BA4100AD004F18043013B05EBD1
:100FD8008305013C55F804399847002CF9D1BDE840
:100FE800384008F023BA00BF7C98000878980008B9
:100FF80070B50D4E0D4D761BB61006D00024013489
:1010080055F8043B9847A642F9D1094E094D761B7D
:1010180008F006FAB61006D00024013455F8043B4F
:101028009847A642F9D170BD7098000870980008DA
:101038007898000870980008844641EA000313F085
:1010480003036DD1403A41D351F8043B40F8043BC7
:1010580051F8043B40F8043B51F8043B40F8043B8A
:1010680051F8043B40F8043B51F8043B40F8043B7A
:1010780051F8043B40F8043B51F8043B40F8043B6A
:1010880051F8043B40F8043B51F8043B40F8043B5A
:1010980051F8043B40F8043B51F8043B40F8043B4A
:1010A80051F8043B40F8043B51F8043B40F8043B3A
:1010B80051F8043B40F8043B51F8043B40F8043B2A
:1010C80051F8043B40F8043B403ABDD2303211D3CA
:1010D80051F8043B40F8043B51F8043B40F8043B0A
:1010E80051F8043B40F8043B51F8043B40F8043BFA
:1010F800103AEDD20C3205D351F8043B40F8043BCA
:10110800043AF9D2043208D0D2071CBF11F8013BC7
:1011180000F8013B01D30B8803806046704700BF8D
:10112800082A13D38B078DD010F003038AD0C3F19C
:101138000403D21ADB071CBF11F8013B00F8013B7E
:1011480080D331F8023B20F8023B7BE7043AD9D33D
:10115800013A11F8013B00F8013BF9D20B78037012
:101168004B7843708B78837060467047F0B486077D
:1011780046D0541E002A3CD0CAB2034602E014F1FD
:10118800FF3436D303F8012B9D07F8D1032C29D956
:10119800CDB245EA05250F2C45EA054533D9A4F11A
:1011A8001006360903F1200707EB061703F11002B2
:1011B80042E9045542E902551032BA42F8D1721C8C
:1011C80014F00C0F03EB021204F00F0613D0331FB8
:1011D80023F003030433134442F8045B9342FBD126
:1011E80006F003042CB1C9B21C4403F8011B9C424D
:1011F800FBD1F0BC704734461346002CF3D1F8E716
:1012080014460346C2E71A462646E0E7F0B4184CEF
:101218002568D5F8484114B365681F2D24DC38B912
:10122800AB1C0135656044F823100020F0BC704702
:1012380004EB85060127C6F8882007FA05F2D4F8DA
:101248008871022847EA0207C4F88871C6F808318D
:10125800E6D1D4F88C311A43C4F88C21E0E705F5BF
:10126800A674C5F84841D7E74FF0FF30DEE700BF66
:10127800DC96000800000000C1F30A522DE9F04195
:10128800A2F2FF36132E0B460D460446074634DC01
:10129800002E1FDB384A42FA06F808EA0102024328
:1012A80030D033A3D3E90023FFF752F800220023FC
:1012B800FFF794FC48B1002D04DD4FF4801343FA86
:1012C80006F6354425EA080500273C462946204607
:1012D800BDE8F08126A3D3E90023FFF739F80022FF
:1012E8000023FFF77BFC0028EFD0002D3ADB55EAFE
:1012F800040733D00027214DE7E7332E06DDB6F586
:10130800806F26D019462046BDE8F081A2F213422C
:101318004FF0FF3828FA02F818EA000FF2D014A3A9
:10132800D3E90023FFF714F800220023FFF756FC47
:101338000028CAD0002D09DD142E11D00123C6F1D2
:10134800340603FA06F6371928BFED1827EA080706
:10135800BBE70246FEF7FCFF0446D4E73D46B4E788
:101368000135F3E700274FF00045AEE7AFF3008003
:101378009C7500883CE4377EFFFF0F000000F03FBB
:10138800C1F30A522DE9F041A2F2FF36132E0B46A3
:101398000D460446074631DC002E1FDB384A42FA68
:1013A80006F808EA010202432DD033A3D3E900234B
:1013B800FEF7CEFF00220023FFF710FC48B1002DF6
:1013C80004DA4FF4801343FA06F6354425EA080593
:1013D80000273C4629462046BDE8F08126A3D3E9EC
:1013E8000023FEF7B5FF00220023FFF7F7FB0028D4
:1013F800EFD0002D29DB00273D46EAE7332E06DD36
:10140800B6F5806F1CD019462046BDE8F081A2F2DF
:1014180013424FF0FF3828FA02F818EA000FF2D00A
:1014280015A3D3E90023FEF793FF00220023FFF75B
:10143800D5FB0028CDD0002D10DB27EA0807C8E728
:101448000246FEF785FF0446DEE725F000430D4A15
:101458001F43002F18BF15460027BAE7142E08D0DF
:101468000123C6F1340603FA06F6371928BFED182A
:10147800E3E70135E1E700BF9C7500883CE4377E6F
:10148800FFFF0F000000F0BF2DE9F043C1F30A5C35
:10149800ACF2FF36132E83B002460B460C464FEAD9
:1014A800D175074638DC002E2DDB3B49314103EA74
:1014B800010010432BD049080B4052EA03070CD017
:1014C8004FF48023132E24EA010143FA06F444EA78
:1014D80001040CBF4FF000470027304901EBC50558
:1014E8002346D5E900453A4620462946FEF730FF0F
:1014F800CDE9000122462B46DDE90001FEF726FF73
:1015080003B0BDE8F08321F00041014320D110462B
:10151800194603B0BDE8F083332E05DDB6F5806FBC
:10152800F5D1FEF715FFF4E7ACF2134C4FF0FF319D
:1015380021FA0CF10842EAD049080842CDD04FF010
:10154800804320EA010143FA0CFC41EA0C07C4E796
:10155800C3F31301014311484F420F4300EBC50188
:10156800D1E900895C0C3F0B640407F4002747EAC3
:10157800040340464946FEF7EBFECDE9000142462A
:101588004B46DDE90001FEF7E1FE21F0004444EAA4
:10159800C57103B0BDE8F083FFFF0F00E0960008B7
:1015A800F8B5C1F30A57A7F2FF34132C0B460D46C2
:1015B80002461EDC002C0EDB1C49214101EA030017
:1015C800104313D04FF4002343FA04F4254425EACA
:1015D8000105002608E001F00045013404BF45F08C
:1015E8007F5545F44015002632462B4610461946CD
:1015F800F8BD332C07DDB4F5806FF7D1FEF7A8FEF0
:1016080002460B46F2E7A7F213474FF0FF3121FAE3
:1016180007F73842EAD00123C4F1330403FA04F48B
:10162800061928BFED1826EA0706DDE7FFFF0F00B9
:101638007047FEE7FEE7FEE7FEE770477047704732
:10164800704703F0CDB803F00DBE000070B5084E2A
:10165800084D3178286801F029FC0128044605D195
:101668003178286801F00AFC034B1C7070BD00BF7C
:10167800280000202C000020F6040020014B012245
:101688001A707047000000200020704730B50578B8
:1016980087B03DB94378114C4BB9114801F0F0F9C6
:1016A800022323700F4B01221A7007B030BD0E4879
:1016B80001F0E6F90D4B029303F10802103304938D
:1016C80001A808238DF814308DF80450039206F011
:1016D8003FFB00280CBF04230323E2E7CC040020CF
:1016E800F096000800000020F9960008010000208C
:1016F80070B5184C88B0201D02F082F901266846A2
:101708008DF8006006F092F80546134801F0B8F924
:10171800124B1348197801F0B3F935B99DF8043024
:101728002BB1022323700F4B1E7008B070BD8DF8CB
:101738000C300D4B049303F1080203A810330693F1
:10174800059206F005FB00280CBF04230323237031
:10175800EBE700BFCC04002007970008F604002040
:101768002397000800000020010000200378042BC4
:1017780001D1FFF7BDBF7047F7B543780446002B8A
:1017880042D1224D224F2B7E39782248224E0133F6
:101798002B7601F075F9214B3068197801F05EFB62
:1017A8003B78834204D001231D482B7601F068F969
:1017B8002B7E3068022B01BF1A4A002313702B7648
:1017C800194B0122197801F0EFFA01236B76A3680F
:1017D800009394F910202379B4F90E10134801F0FE
:1017E8004FF96378032B09D0042B0BD06379012BB5
:1017F8000AD103B0BDE8F040FFF77ABF0C4801F00A
:101808003FF9F3E70B48FAE703B0F0BDCC0400203A
:101818003C0B0020379700082C00002028000020EF
:101828004B970008F6040020300000205797000866
:101838009D970008AA97000880B5744C7448754FA6
:10184800754D002392B0237001F01AF92378042B08
:1018580000F2D980DFE813F0050047005D00BC0006
:10186800D4006E4B09936E4B0A936E4B0B936E4BE1
:101878000C9300226D4B019301A909A805F0EEFD18
:101888006B4B19786B4B0122186801F08DFA6A4985
:101898006A4802F03DF80126022303A88DF80C30AF
:1018A8008DF8106006F0ACF8072303A88DF80C300B
:1018B8008DF8106006F0A4F8FF220023CDE90D236F
:1018C8000F930D238DF8183006A80DAB079306F07B
:1018D80097F80C220DAB06A88DF81820079306F090
:1018E8008FF82670B2E700238DF83430544B0E93EE
:1018F80003F10802103310930DA808238DF8443023
:101908000F9206F025FA00280CBF04230323237046
:101918009CE72B78002B40D04A4B93F80080B8F115
:10192800010F3AD1484B494E1978424B186801F0DB
:1019380095FA062385F821305323A3764C23E376C2
:101948004F2323775423012863774FF0310301464F
:101958003070A3773E4818BF3023E37701F090F842
:1019680031783C4801F08CF8002695F8210066761D
:1019780006A905F0EDFED0B137488DF834600F9612
:10198800ADF840608DF8426001F07AF80DA806F0D5
:10199800EBFA003818BF012028704FF47A71002044
:1019A80003F022FB00F5FA6068620323AFE7022325
:1019B8008DF83830294B0F9395F82130ADF8403029
:1019C8004FF4006326488DF83480ADF84230DBE7E9
:1019D8000423696A1948237002F042F8174801F095
:1019E8009FFF637E002B7FF431AF237E002B7FF4B3
:1019F8002DAF0F4B19780F4B186801F038FA25E70F
:101A08003B6E984722E7002381E700BFCC04002003
:101A1800B7970008BC95000800000020851600084C
:101A28008117000895160008751700089116000818
:101A3800300000202C000020F9160008D0040020F7
:101A480001000020F6040020280000203C0B0020A4
:101A5800CA970008DD97000804980008E6040020EB
:101A6800249800081FB50D480D4C0122002101F0F3
:101A780027FA01221146094801F022FA01A801F0CB
:101A88004CF84FF4E13301A92046019301F05AF8CC
:101A98000121204601F04CF804B010BD00F40140CB
:101AA8000030004010B5094C01222178606801F02F
:101AB800E9F803222178606801F0E8F9044B4FF453
:101AC80080021A60202283F8162310BD2800002007
:101AD80000E100E008B50121022001F037FE0121F4
:101AE8001F2001F0D9FB01210D2001F0D5FB0121B8
:101AF800202001F0D1FB0121212001F0CDFB0121A3
:101B0800222001F0C9FB0121412001F0C5FB012180
:101B1800032001F0C1FB0121002001F0BDFB0121E0
:101B28000E2001F0B9FB01210D2001F0B5FB0A4B95
:101B380003225868197A01F0A5F8642001F01CFA0C
:101B4800012001F031FBFFF78DFF03F075FABDE8C6
:101B58000840FFF7A7BF00BF2800002008B5FFF71F
:101B6800B9FFFFF769FE002008BD70472DE9F74F60
:101B7800DDF83C9019F0030FDDE90D4607468B466A
:101B8800154628D00C9901EB04081444A24226D12A
:101B980019F0020F0AD0A4EB0508C1464E4505EB23
:101BA800090226D83544464528BF2C46204603B0AE
:101BB800BDE8F08F594620200193B847019B08F1F2
:101BC8000108B0450AEB0802F4D3321BB44288BFBF
:101BD80000222A44D6E7A046A2EB040AF1E702F164
:101BE800010A18F8010D01935946B847019B52465E
:101BF800CCE759462020019309F10109B847019B18
:101C0800CCE72DE9F047DDE90D7616F0020FDDE9A6
:101C18000854DDE90BC89DF828E01FD106F001093A
:101C28004FB1B9F1000F06D0BEF1000F02D116F086
:101C38000C0F00D0013F4FF0300A02E005F804A075
:101C48000134444501D2202CF8D14FF0300AB9F1C3
:101C5800000F03D0BC4201D21F2C34D916F0100F4C
:101C68001FD016F4806F33D194B3444501D0BC42E1
:101C78002ED1B4F101082AD0BCF1100F33D1023CA7
:101C880016F0200F31D11F2C15D84FF0780C05F81D
:101C980004C001341F2C0ED84FF0300C05F804C0D6
:101CA80001341F2C07D8BEF1000F23D04FF02D0CA4
:101CB80005F804C00134CDE90A76CDE90854BDE839
:101CC800F047FFF753BF05F804A00134BFE74446C7
:101CD800BCF1100FD4D0BCF1020FDBD11F2CEAD815
:101CE8004FF0620CD3E74446F5E71F2CE3D84FF0DA
:101CF800580CCCE716F0040F02D04FF02B0CD7E7A6
:101D080016F0080FD7D04FF0200CD1E72DE9F0439B
:101D180091B0189D1A9E1D9F0DB927F010077C05DC
:101D280000D50DB317F0200FAC460DF1200E4FF083
:101D3800000514BF4FF037084FF05708BCFBF6F901
:101D480006FB19C95FFA89F4B9F1090F94BF303459
:101D58004444E4B2B4450EF8014BBCFBF6F405F17B
:101D6800010501D3202D10D11C9C05941B9C0697BE
:101D7800CDE903649DF86440CDE9015408AC0094B2
:101D8800FFF73FFF11B0BDE8F083A446D6E72DE981
:101D9800F04F93B0DDE91CAB249D99465AEA0B033A
:101DA80008BF25F010056B0506460F46904602D57C
:101DB8005AEA0B033CD00AAB15F0200F089314BF66
:101DC8003723572300240993DDE920235046594639
:101DD800FEF756FFD2B2092A8ABF099B3032D218C1
:101DE800089BD2B203F8012B0893DDE920239B4519
:101DF80008BF924504F1010401D3202C15D1239B7F
:101E08000593229B0493209B03939DF878300695B5
:101E1800CDE901430AAB009342464B46394630466A
:101E2800FFF7EFFE13B0BDE8F08F82468B46CBE795
:101E38000024E4E7014610B1014800F069BE70478C
:101E480000300040000000002DE9F04F2DED068B1A
:101E580091B0DDE9206708EE100A08EE901A924664
:101E68009B4632463B4630463946229DFEF78EFE5B
:101E780080B9249B0393239B029303230193B64BBE
:101E8800009318EE901A18EE100A5B465246FFF7B8
:101E98006DFE47E04FF0FF326FF48013304639464D
:101EA800FEF77EFE38B1249B0393239B0293042301
:101EB8000193AA4BE4E7AA4B4FF0FF32304639466C
:101EC800FEF78CFE78B1249BA64A2499039103F06F
:101ED8000403002B2399A44B0EBF032213460422AC
:101EE800CDE90121CCE798A3D3E900233046394650
:101EF800FEF774FE38B996A3D3E900233046394675
:101F0800FEF74EFE98B1249B0493239BCDE900670E
:101F1800CDE9025318EE901A18EE100A5B465246A5
:101F280000F02AF911B0BDEC068BBDE8F08F002255
:101F3800002330463946FEF733FE002800F0828041
:101F48003B46324600200021FEF700FA01230646F0
:101F58000F460793249B13F4806F08BF062508AB30
:101F6800A5F12002A9463021B9F1090FA5EB090412
:101F780006D909F1FF394A4503F8011BF4D1202499
:101F880039463046FEF734FE784B03EBC90393ED30
:101F9800007B0546B0EE479AF0EE679AFEF724FB01
:101FA80002460B4630463946FEF7D0F953EC192B5A
:101FB800FEF784FB02460B4643EC1A2BFEF740FE65
:101FC8008046FEF701FB02460B4651EC1A0BFEF762
:101FD800BDF902460B4643EC1A2B654B0022FEF76F
:101FE800FDFD88B308F101084046FEF7EDFA024608
:101FF8000B4651EC190BFEF7DDFD10B101354FF022
:102008000008B9F1000F4ED12846FEF7EDFA024656
:102018000B4630463946FEF799F9554B0022804663
:102028008946FEF7BDFD30B1514B00224046494676
:10203800FEF7D4FD10B1E80700D5013508AB2344FD
:102048000A2258E0079085E7494B51EC1A0B002209
:10205800FEF7A6FD0028D4D1B8F1000F02D018F081
:10206800010FCED008F10108CBE7B8FBF1F001FB76
:1020780010823032B8F1090F03F8012B09F1FF394A
:1020880004F1010427D8A14408AA3021202C0FD03C
:102098004C4504F1010320D110AA14442E2204F85F
:1020A800202C1C46CAE708AB23440A21202CDCD18B
:1020B800249B03F00303012B08AB2CD1239A52B3C2
:1020C800079A1AB9249A12F00C0F02D0239A013AEF
:1020D8002392302214E08046E8E7A1541C46D5E755
:1020E80095FBF2F102FB1155303503F8015B013421
:1020F8000D460029DCD0202CF2D1D9E71A5501343D
:102108002399A14207D9202CF8D1249A0392239A23
:10211800CDE90142B4E6202CF7D0079A32B110AAD3
:1021280022442D2102F8201C0134EEE7249A51079D
:1021380003D510AA22442B21F4E7249A1207E4D5E8
:1021480010AA22442021EDE70000000065CDCD4112
:102158000000000065CDCDC1589800085C980008C3
:10216800FFFFEF7F539800084F980008409400083D
:102178000000E03F000000002DE9F04F2DED088B36
:102188008DB01D46DDE920B39DED1E7B0793229B94
:102198000A9208EE900AB0EE479AF0EE679A0C465B
:1021A800069351EC170B53EC172BFEF7EFFC80B19D
:1021B800CF4B51EC190B4FF0FF32FEF70FFD40B932
:1021C80051EC190B4FF0FF326FF48013FEF7E8FC67
:1021D80090B1069B2293079B0A9A18EE900ACDE9C4
:1021E80020B321462B468DED1E9B0DB0BDEC088B10
:1021F800BDE8F04FFFF728BE51EC190B0022002371
:10220800FEF7CEFC002800F04E8119EE903A19EE48
:10221800108A03F10049069B9FEDB67A9FEDB68AB6
:1022280013F480630B93C9F30A53A3F2FF3307EE49
:10223800903AC9F31302F8EEE77A42F07F51AF4BB8
:102248004FF00002404641F4401108BF4FF0060B22
:10225800A7EE878AFEF77AF89FA3D3E90023FEF753
:102268002DFA064618EE100A0F46FEF7CFF9024679
:102278000B4630463946FEF76BF8FEF7B9FC07EE19
:10228800900AB8EEE77ADFED9E7AB6EE008AA7EEFE
:10229800278A8246DFED9B7ABDEEC88AF8EEC86AC7
:1022A80067EEE67ADFED986AE7EE267A17EE900A8F
:1022B800FEF7ACF902460B4606460F46FEF7FEF956
:1022C800324641EC1A0B3B4630463946FEF740F899
:1022D8008E4B41EC1B0B002251EC1A0BFEF718FB3E
:1022E8008B4B0022FEF734F802460B4651EC1A0BD2
:1022F800FEF70EFB874B0022FEF72AF802460B4634
:1023080051EC1A0BFEF704FB324641EC1A0B3B4624
:1023180000204FF08041FEF719F802460B4651ECB9
:102328001A0BFEF715F802460B4651EC1B0BFEF78D
:10233800EFFA794B0022FEF70BF818EE103A03F289
:10234800FF3633050022FEF7B9F906460F46024666
:102358000B4640464946FEF723FC002840F0A6807D
:10236800CDE908670AF16303C72B069B34BF04262F
:102378000526190523D55AA3D3E900234046494623
:10238800FEF722FC002800F09C8057A3D3E9002325
:1023980040464946FEF704FC002800F09280069B60
:1023A800DA45B8BFABEB0A0B43F480634FF0000685
:1023B800B4BF0BF1FF3B4FF0000B0693B246079BEF
:1023C800B34288BF9F1B069B98BF002713F00203E8
:1023D8000B9302D0002E18BF0027BAF1000F07D0C8
:1023E80040464946DDE90823FEF792FA80468946C9
:1023F80051EC190B00220023FEF7D2FB10B109F1B2
:1024080000439946069B0A9ACDF808B023F4006366
:10241800CDE90373CDE9008918EE900A2B462146D1
:10242800FFF712FD0746002E37D0069B13F0200F4A
:1024380000F10109024618EE907A14BF4520652084
:102448002B462146B8470523059300220A238AEA2A
:10245800EA70CDE90232A0EBEA704FEADA73013E86
:10246800019300902B4618EE900A04964A4621469E
:10247800FFF74CFC0B9B07467BB10A9BA0EB0309BB
:10248800C8460A9B03EB0802079B434546D80799B1
:102498000A9B0B44494528BF1F4638460DB0BDEC82
:1024A800088BBDE8F08F59EC198BB4E6184B002265
:1024B80030463946FEF72CFA0AF1FF3ACDE9080111
:1024C80050E7BBF1000F3FF47AAF0B9B002B3FF4B2
:1024D80076AF0BF1FF3B72E700000060A787D23FA1
:1024E800000000E0E2361A3F0000000080842E4120
:1024F800FFFFEF7F9B209A3E4451343E0000F83F97
:10250800789A54401872313F8E5D134000002C4079
:1025180000002440000018400000F03F18EE906AC8
:102528002B4621462020B04708F10108A9E700BF43
:102538002DE9F04F91B000290A93C74B1A9E904697
:1025480014BF8146994600250A9B187858B9454515
:102558002CBF08F1FF322A4643460020C8472846C8
:1025680011B0BDE8F08F0A9B252803F101030A93F7
:1025780006D02A466C1C43460B91C8472546B7E14E
:10258800002206E02D2B14D0302B0CD142F0010292
:102598000A900A9810F8013B2B2B0DD0F2D8202B6B
:1025A8000DD0232B0ED0A3F13004092C28D80027F6
:1025B80010E042F00202EBE742F00402E8E742F0E2
:1025C8000802E5E742F01002E2E70A2404FB0737B5
:1025D800303F0A900A9810F8013BA3F13004092C07
:1025E800F3D90A9B1B782E2B67D10A9B581C5B7862
:1025F800A3F13004092C42F4806255D8002411E07C
:102608002A2B08D156F8047B0A90002FBCBF42F051
:1026180002027F42E5E70027E3E70A2000FB0434D3
:10262800303C604684461CF8013BA3F1300EBEF1F5
:10263800090FF2D9034613F801CBBCF16C0F48D04F
:102648003ED8BCF1680F4DD0BCF16A0F55D0034697
:1026580013F8010B0A9378288BD8572850D84528A7
:1026680005D086D9462800F03081472881D100F06E
:10267800DF03472B04BF00F0FD0042F40062452849
:1026880008BF42F02002CDE90372073626F007069C
:102698000294F6E802234846CDE9002343462A4639
:1026A8000B91FFF769FD22E12A2B07D156F8044B5D
:1026B8000A9824EAE4740230BCE70A980024B9E7CF
:1026C800BCF1740F02D0BCF17A0FC0D142F4807211
:1026D800BEE790F801C0BCF16C0FF7D142F440722C
:1026E800831CB5E790F801C0BCF1680F02D042F036
:1026F8008002ADE742F0C002F2E742F40072A7E7B9
:10270800A0F15803202B3FF634AF0FF2080C5CF809
:1027180023F000BFA12700087B2500087B250008BF
:102728007B2500087B2500087B2500087B25000801
:102738007B2500087B2500087B250008A1270008C9
:10274800FD280008A127000877260008D7280008D8
:10275800772600087B250008A12700087B250008AC
:102768007B2500087B2500087B2500087B250008C1
:10277800A12700084D2A00087B2500087B250008B2
:10278800792900087B250008A12700087B25000877
:102798007B250008A1270008782800F069815828BF
:1027A80000F064816F2800F06581622800F0648180
:1027B800692822F010024FF00A0303D0642801D0E0
:1027C80022F00C0212F4806F18BF22F0010269286F
:1027D80002F4007C01D0642844D1BCF1000F23D05E
:1027E800073626F00700824640685AF8086B0493BB
:1027F80000230593C30F0293002E034673F10000D4
:10280800CDE907720694324602DA724263EB43035B
:10281800CDE90023484643462A460B91FFF7B7FA0D
:102828000B99054656468FE6D00506F1040A0CD5E5
:102838003068CDE90472CDE9023400284FEAD0733C
:102848000193B8BF4042009028E012F0400F306872
:1028580004D0C0B2EDE700BF731B0008160648BFDE
:1028680000B2E6E7BCF1000F0CD0CDE907720022F8
:10287800CDE90432073626F0070A06940292FAE8F0
:102888000223C5E7D00506F1040A0ED5CDE9047286
:10289800CDE90234CDF804C03368009343462A4694
:1028A80048460B91FFF732FABAE712F0400F30684A
:1028B80007D0C0B2CDE902340023CDE904720193F8
:1028C800C1E7160648BF80B2F4E742F02002CDE91E
:1028D8000372073626F007060294F6E802234846F4
:1028E800CDE9002343462A460B91FFF7ADFA05468A
:1028F8000B9929E612F0020426D04FF0010A56F887
:10290800040B0B9143462A46C0B2C84705F1010B98
:102918000B995CB354465A4620E00B91434620205D
:10292800C8470B990AEB05020AF1010A5745F4D882
:10293800002F07F1FF3308BF002307F1010A1D44E8
:1029480008BF4FF0020ADAE7A246EBE70B914346CD
:102958002020551CC8470B9901342A46BC42F5D3A0
:10296800A7EB0A03574538BF00239B445D46EBE5B8
:10297800334653F8046B0B93404B002E08BF1E469A
:10298800002C14BF23464FF0FF333344B3469BF863
:10299800000008B19B4511D112F48063ABEB060B24
:1029A8000C9302D0A34528BFA34612F002030D934F
:1029B8001CD1ABEB05032A460E930AE00BF1010B81
:1029C800E5E70F914346202002F1010AC8470F9915
:1029D80052460E9B1344BB42F3D3A7EB0B035F4550
:1029E80038BF00230BF1010B1D449B44A5EB060ADD
:1029F80005E01C460E9143462A46C8470E990AEB45
:102A0800060516F8010B28B10C9B002BF2D0631EAB
:102A1800002CEED10D9B9BB12A46ABEB050406E0DA
:102A28000C9143462020561CC8470C99324613196E
:102A3800BB42F5D3A7EB0B035F4538BF00231D440A
:102A48000B9E81E542F021020823CDE9034305925C
:102A580000231022CDE9013256F8043B00932A46A0
:102A6800434648460B91FFF751F940E742F02002F0
:102A78001023A5E60823A3E60223A1E6619800082F
:102A88000FB41FB506AA02A952F8043B039200929C
:102A980004484FF0FF32FFF74BFD05B05DF804EB3B
:102AA80004B070473D1E0008064B0748E02283F833
:102AB8002220C0210023C2180133252B82F80013DD
:102AC800F9D1704700ED00E000E100E00E4A08B5DA
:102AD800D2F8883043F47003C2F888304FF080424F
:102AE800D36843F08003D360084B5A6922F47022FC
:102AF80042F480325A619A689207FCD5FFF7D4FFF6
:102B0800BDE8084000F0FCB900ED00E0000002401C
:102B180083699B06FCD4016070474FF4E13303607E
:102B280060238380002383714FF4401383607047D0
:102B3800036B19B143F001030363704723F00103EA
:102B4800FAE70000036B23F0010370B50363C36A5F
:102B580023F01003C36200238363464B9842044664
:102B68000D463ED100F07AFBC00B0138022850D840
:102B7800414B53F820002B68B0EB031F4FEA0311B9
:102B880075D36BB1B0FBF1F601FB1600C200B2FBC6
:102B9800F3F202F0010303EB52039BB243EA06434C
:102BA8001A0C03F03F036262A362E36A2A7923F0F6
:102BB80060031343E362E36AAA7923F0080313432B
:102BC800E362EB7A8BB3E36A43F01003E3626B7959
:102BD800012B2ED0022B42D09BBBE36A23F00203C9
:102BE8002EE0B0F1402F04D100F03EFBC0F34F308F
:102BF800BBE7224B984204D100F03CFBC0F3CF2046
:102C0800B3E71F4B98420ED100F03AFBC0F34F20B8
:102C1800ABE7184B9C4202D0B4F1402F03D10220FD
:102C280000F0CEFAA7E70320FAE7E36A23F01003DF
:102C3800CCE7E36A43F00203E362E36A23F00403A8
:102C4800E362236BAA7A23F0300313432363236BD5
:102C58002A8923F4404313432363002070BDE36AA9
:102C680043F00203E362E36A43F00403E8E74FF04A
:102C7800FF30F3E700300040909400080000014066
:102C880000100140012310B58B40062A00F2828013
:102C9800DFE802F0040F1B293849630002681A4371
:102CA800026082681A438260C26822EA0303C36032
:102CB80038E002681A43026082681A438260C26878
:102CC8001A43C260026913430BE002681A430260A8
:102CD80082681A438260C2681A43C260026922EAA3
:102CE800030303611EE0026822EA030202608268AD
:102CF80022EA03028260426822EA03024260826991
:102D080013430EE0026822EA03020260826822EAA4
:102D180003028260426822EA03024260826922EA70
:102D28000303836110BD1F4CA0426FEA03020BD15D
:102D3800072909D981691140816181680A40826047
:102D480002681A430260BDE70168114001608168AA
:102D58000A40826042681A43D0E7124CA0426FEAE8
:102D680003020AD1072908D9816911408161816864
:102D78001140816001680A40E4E701681140016080
:102D880081681140816041680B43436083691A4040
:102D98008261C7E702681A430260826822EA030276
:102DA80081E700BF00FC014010B52B4C0123A04275
:102DB80003FA01F346D1072944D98169194219D187
:102DC8008168194216D10168194213D00169194264
:102DD80010D072B9826922EA03028261826822EA0B
:102DE80003028260026822EA030202600269134356
:102DF800036110BD18498869184219D188681842BA
:102E080016D10868184213D10869184210D0002A50
:102E1800EFD08A6922EA03028A618A6822EA0302F9
:102E28008A600A681A430A600A6913430B61E0E77B
:102E380009491AB10A6A13430B62DAE7CA691343EC
:102E4800CB61D6E71AB1026A13430362D1E7C269BC
:102E58001343C361CDE700BF00FC01404269012371
:102E680003FA01F1114214BF184600207047826925
:102E7800012303FA01F1514081617047C26A490098
:102E8800032303FA01F11140C162704770B515467A
:102E98000C46FFF7F3FF6100836A03228A4023EAA6
:102EA800020305FA01F11943816270BDC26A032366
:102EB800490003FA01F1114214BF012000207047B4
:102EC800072910B510D90D4B083998420BBF01EBF3
:102ED8004101890007230F238B408A40C16B21EAF7
:102EE80003031A43C26310BD836B89000F248C400F
:102EF80023EA04038A401A438263F4E700FC014092
:102F080008B5012000F05CF90B4B984213D90B4A25
:102F18000133B0FBF3F31370094A4FF47A73B0FB33
:102F2800F3F0084B0138E021586082F823100022A2
:102F38009A6007221A6008BD3F420F00F70400207C
:102F480000ED00E010E000E030B5094B09491B78BE
:102F58004D6863B18A685843002314468A689442CE
:102F6800FBD098BF5B1923449B1A8342F5D330BD2D
:102F7800F704002010E000E04FF47A735843FFF79D
:102F8800E3BF08B50021032000F086F901210320E2
:102F980000F05AFCBDE808400021032000F054BCB2
:102FA800034940F6FF53CA6A33EA0202FBD170476D
:102FB80000E0004008B5FFF7F3FF054B1A6818B1A9
:102FC80042F080521A6008BD22F08052FAE700BF32
:102FD80000E0004008B5FFF7E3FF054B1A6818B199
:102FE80042F080721A6008BD22F08072FAE700BFD2
:102FF80000E00040012808B50AD8FFF7D1FF054BCB
:103008001A6801280CBF42F0007222F000721A60A0
:1030180008BD00BF00E00040F8B5054600285FD0B5
:1030280031480346476BB9B25E6C5A6CB242FBD169
:103038009C6C9A6CA242FBD15A6B92B29142F1D12C
:103048000029EFD000F022F9BFB207EE907AB8EE6F
:10305800E77AF6EE007A002843D1DFED246AC6F35A
:10306800021306F00F0203EB830302EB4303EB7139
:10307800C6F3C223C6F3C31203EB830302EB430375
:10308800AB71C6F3814303EB8303C6F3833606EBC8
:103098004306C4F3011304F00F0203EB830302EBAE
:1030A80043032B71C4F380239A001344C4F383129F
:1030B80002EB4303E7EE267AEB70C4F3C223AB704E
:1030C800C4F3834303EB8303C4F38334FCEEE77A4E
:1030D80004EB430404F5FA64C5ED027A6E712C80A2
:1030E800F8BDDFED036ABAE700E000400024F441D0
:1030F8000000FA41402810B50C4608D0431EDBB248
:103108001F2B09D8054A22FA03F3DB0704D5FFF77A
:1031180047FF0CB9024BD86110BD00BF8B800080FF
:1031280000E00040402808B508D0431EDBB21F2B42
:103138000ED8084A22FA03F3DB0709D5FFF730FF58
:10314800054BDB6930EA03030CBF0120002008BDF2
:103158000020FCE78B80008000E0004080280AD037
:10316800402808D0431EDBB21F2B0DD8074A22FA8D
:1031780003F3DB0708D5012906D8054B9A6A0CBF6B
:10318800104322EA00009862704700BF8B800080DD
:1031980000E0004008B518B1FFF702FF014B986145
:1031A80008BD00BF00E00040044A136818B143F0AE
:1031B80080031360704723F08003FAE70C80004017
:1031C8004FF0804301461A6802F4E042B2F5A04F7E
:1031D80020D015D8B2F5805F1ED0B2F5005F1B482D
:1031E80008BF4FF4004002291BD0032923D001292E
:1031F80005D14FF080431B68C3F30323D8407047C1
:10320800B2F5C04F0BD0114B1148B2F5E04F18BFC3
:103218001846E8E70F48E6E74FF4FA40E3E70E48B8
:10322800E1E74FF080421368C3F30323D8401368E3
:10323800C3F34213E2E74FF080421368C3F303235A
:10324800D8401368C3F3C233D8E700BF00366E0115
:10325800006CDC020048E80180EE36004FF0804345
:10326800986800F4C03070474FF08043986800F4C5
:10327800C04070474FF08043986800F4C0507047D2
:103288004FF08043986800F4C06070474FF0804367
:10329800586800F00200704741284AD8DFE810F06B
:1032A80011020702FD01E401D201B90171016701B0
:1032B8005D01530149013F0135010D010301D600AC
:1032C800EA00E000CC004900C200B800AE00A3004C
:1032D80099008F0085006B00610057004D00420087
:1032E800170121012B014900490049004900490003
:1032F800490049004900490049004900490049007E
:103308002E0225021B023802950149004900490096
:10331800490049004900490049004900490049005D
:1033280042024C024FF08043DA6819B142F480122D
:10333800DA60704722F48012FAE74FF08043DA68C7
:1033480011B142F40022F3E722F40022F0E74FF033
:103358008043DA6811B142F48022E9E722F480223E
:10336800E6E74FF08043DA6811B142F40032DFE754
:1033780022F40032DCE74FF08043DA6879B142F496
:103388008032DA604FF080439A6A02F03F023F2AA7
:10339800FAD15A6931B142F004025A61704722F4F5
:1033A8008032EEE722F00402F7E74FF08043DA6854
:1033B80011B142F40042BBE722F40042B8E74FF0F3
:1033C8008043DA6811B142F48042B1E722F48042C6
:1033D800AEE74FF08043DA6811B142F40052A7E734
:1033E80022F40052A4E74FF080431A6919B142F061
:1033F80020021A61704722F02002FAE74FF080435A
:10340800DA6811B142F4805292E722F480528FE7D1
:103418004FF08043DA6811B142F4006288E722F481
:10342800006285E74FF08043DA6811B142F48062A8
:103438007EE722F480627BE74FF08043DA6811B1BF
:1034480042F4807274E722F4807271E74FF080438F
:10345800DA6811B142F020026AE722F0200267E739
:103468004FF08043DA6811B142F0800260E722F041
:1034780080025DE74FF08043DA6871B142F04002A4
:10348800DA604FF080439A6A02F03F023F2AFAD18D
:103498005A6929B142F008027FE722F04002EFE7BB
:1034A80022F0080279E74FF08043DA6811B142F060
:1034B80010023DE722F010023AE74FF08043DA6845
:1034C80011B142F0007233E722F0007230E74FF09A
:1034D8008043DA6811B142F0807229E722F08072E5
:1034E80026E74FF08043DA6811B142F400021FE783
:1034F80022F400021CE74FF08043DA6811B142F46D
:10350800800215E722F4800212E74FF08043DA6860
:1035180011B142F008020BE722F0080208E74FF069
:103528008043DA6811B142F0040201E722F0040294
:10353800FEE64FF08043DA6811B142F00202F7E686
:1035480022F00202F4E64FF08043DA6811B142F04B
:103558000102EDE622F00102EAE64FF08043DA6864
:1035680011B142F00062E3E622F00062E0E64FF0BB
:103578008043DA6811B142F08062D9E622F08062B5
:10358800D6E64FF080431A6979B142F400721A61A5
:103598009A6A02F03F023F2AFAD15A6942F01002B1
:1035A8005A611A6942F0100223E722F010021A61E8
:1035B8009A6A02F03F023F2AFAD15A6922F01002B1
:1035C8005A611A6922F4007213E74FF080431A69AE
:1035D80079B142F480521A619A6A02F03F023F2A96
:1035E800FAD15A6942F020025A611A6942F400621B
:1035F800FFE622F400621A619A6A02F03F023F2A4B
:10360800FAD15A6922F020025A611A6922F48052CA
:10361800EFE64FF080431A6971B142F008021A616F
:103628004FF080439A6A02F03F023F2AFAD15A6962
:1036380029B142F00102B0E622F00802EFE722F0D9
:103648000102AAE64FF080431A6931B142F0040240
:103658001A611A6942F04002CBE622F004021A61AC
:103668001A6922F04002C4E64FF080431A6971B12A
:1036780042F002021A614FF080439A6A02F03F0258
:103688003F2AFAD15A6929B142F0020285E622F0AE
:103698000202EFE722F002027FE64FF08043DA6889
:1036A80011B142F0805243E622F0805240E64FF0DA
:1036B80080431A6911B142F001029AE622F0010230
:1036C80097E64FF080431A6911B142F0800290E604
:1036D80022F080028DE64FF080431A6911B142F45E
:1036E800807286E622F4807283E64FF08043DA68BF
:1036F80009B11A431CE622F0804219E64FF08043D4
:10370800DA6811B142F0005212E622F000520FE6D8
:103718004FF080431A6911B142F4806269E622F4DD
:10372800806266E64FF08043DA6811B142F4001215
:10373800FEE522F40012FBE54FF08043DA6811B190
:1037480042F00042F4E522F00042F1E510B50C46E3
:1037580005280ED8DFE800F003151F28335E364A27
:103768003649136834B123F0200313608B685B0774
:10377800FCD510BD43F0200313608B685C07FCD4B4
:10378800F7E72F4A136819B123F400431360F0E7F1
:1037980043F40043FAE72A4A136811B123F4C043FB
:1037A800F4E743F4C043F1E7234A136823F018030E
:1037B80011B143F00803E9E743F01003E6E70121FC
:1037C8000E20FFF769FD1F4BD3F80421CCB19006FA
:1037D8000BD4D3F8042142F02002C3F80421D3F813
:1037E800042122F08002C3F80421164BD3F80421E7
:1037F80042F00402C3F80421D3F808219107FBD54D
:10380800B7E722F00402C3F80421D3F8082192078D
:10381800FBD4AEE7084A0949136834B123F04003E2
:1038280013608B68002BFCDAA3E743F040031360B6
:103838008B68002BFCDB9CE718800040008200406E
:1038480008800040009000403F281ED82F280DD93E
:103858000123303803FA00F04FF08043DA6911B9D8
:103868001043D861704722EA0000FAE7A0F120036C
:10387800DBB2022B98BF0D20012303FA00F04FF0B2
:1038880080439A6911B910439861704722EA000091
:10389800FAE7FFF771BB000010B501F035FC0446EC
:1038A80001F0C8FC064B1B68011B201A03B910BDA8
:1038B8001A688A428CBF121800221A601B69F5E741
:1038C800F8040020054B1A680AB10021117218602B
:1038D800012302610372006801F0C6BBF8040020EE
:1038E80073B502AB03E9030001F014FCBDF9042031
:1038F800009E064C4FF47A75D317E5FB0623101A81
:1039080063EB0101C4E9020102B070BDF8040020B4
:103918000023C0E90033C0E90313037270470000B5
:1039280070B5044601F0B7FC64B11A4D29680B461E
:1039380063B962682260237261B901F07BFC20469A
:10394800FFF7C0FFBDE8704001F0A7BC9C42F9D06A
:103958001B69EDE701F07AFC22682B6802442260BB
:1039680019688A42064605D2FFF796FF2068801B31
:103978002060E4E71969186910B91C612061E1E762
:103988000868824202D90B460969F4E71C61216183
:10399800D8E700BFF8040020D0B5FFF77DFF174A2D
:1039A800136814462BB11969DB68116003B9FEE787
:1039B8009847236823B9FFF76FFF23689BB9D0BDE9
:1039C8001E6801F043FC00278F4208BF864203D3DC
:1039D80023681B68002BEED123681A69DB68226014
:1039E800002BE5D1FEE71A7A002AE8D10122BDE8CA
:1039F800D04018681A7201F037BB00BFF8040020E5
:103A080070B5164D044601F046FC2B6803B11CB98D
:103A1800BDE8704001F041BCA34215D1237A266964
:103A280083B16EB1002323722E60FFF735FF2B6838
:103A3800012218681A7201F017FB00232372E7E7C6
:103A480001F058FB2E60F8E71A461B69002BF4D0EA
:103A58009C42F9D123691361EFE700BFF804002005
:103A680038B504460D46FFF7CBFFC4E9005538BD0D
:103A780008B501F04FFB034AD2E90232C01842EB05
:103A8800010108BDF804002070B50446FFF7F0FFF7
:103A98004FF47A72002306460D46FDF7F1F82946E1
:103AA80020604FF47A7230460023FDF7E9F820468B
:103AB800A28070BD38B504460D46FFF7D9FF001B3C
:103AC80061EB050138BD10B5102204460021043011
:103AD80001F0ABFA0023236010BD002308461A4604
:103AE8001021FCF739BB2DE9F0430746054657F886
:103AF800140B85B00E46144620B3C0F11009914549
:103B0800C84628BF90461FFA88F2384401F079FA6F
:103B18002B6843440F2B2B601CD9A1451AD22A1DB0
:103B2800134612F8011BD07BBA4281EA000102F861
:103B3800011CF6D1002210211846FCF795FB4644DB
:103B4800A4EB0804102C08D8A2B23146384601F07C
:103B580058FA2C6005B0BDE8F0832B1D711E9846FD
:103B68001A7811F8010F424003F8012BBB42F7D134
:103B780010224146684601F044FA6B4600221021A3
:103B88006846FCF771FB10226946404601F039FA95
:103B98001036103CD6E770B588B0102205460C46A2
:103BA8006846002101F041FA6B4600221021684660
:103BB800FCF75AFB9DF90030002B6A464FF00001D4
:103BC80040DA137812F8010F01315B0043EAD01391
:103BD8000F2902F8013CF4D19DF80F305B0083F007
:103BE80087038DF80F302368102B3AD104F11403A2
:103BF800694604F124001A7811F8016B724003F841
:103C0800012B9842F7D1231D1946143413F8012BC0
:103C1800D87B9C4282EA000203F8012CF6D11022DC
:103C28000DEB020001F0EDF910212B460DEB010020
:103C38000022FCF719FB10220021684601F0F5F973
:103C480008B070BD137812F8010F01315B0043EA28
:103C5800D0130F2902F8013CF4D19DF80F305B0016
:103C6800BFE79DF90020002A69464FF000002FDACF
:103C78000A7811F8016F0130520042EAD6120F2873
:103C880001F8012CF4D19DF80F20520082F0870230
:103C98008DF80F20E2188021581C11750026014666
:103CA80004F114020F2922D91028C3F10F03214669
:103CB80088BF0023034441F8243B684613461A781A
:103CC80010F8016B724003F8012B9942F7D19AE77B
:103CD8000A7811F8016F0130520042EAD6120F2813
:103CE80001F8012CF4D19DF80F205200D0E756546A
:103CF8000131D7E701207047034B1B6813B15B689C
:103D080003B11847704700BF0C050020034B1B6820
:103D180013B1DB6803B11847704700BF0C050020DA
:103D2800002000F0F7BD000010B5134C206000F033
:103D38001FFF002000F0EEFD012000F098FE00219A
:103D4800084601F093F80421002000F061FF0023E9
:103D5800194618461A4600F0DBFE08490848FFF7DE
:103D6800D7FD08490848FFF7D3FD08490848FFF779
:103D7800CFFD0020207110BD0C050020013D00087A
:103D8800800B0020153D0008BC0C0020053F0008F2
:103D9800940C002008B500F035FDC31EDBB2022BE1
:103DA8009ABFC0F10600C0B2002008BD00F0F4BE02
:103DB80008B501F068F800B208BD01F099BB01F040
:103DC80063BB000038B50C46002340F201211A46B7
:103DD8000546084600F09CFE00F014FF0B4B012836
:103DE8000A480CBFDC731C7200F0CCFF2146284641
:103DF800002200F0BBFD064B06489968FFF730FE2D
:103E0800BDE838400348FFF78BBD00BF440B0020D6
:103E18000C050020800B002008B54FF0040000F0CE
:103E280067FDBDE808400220FFF733BD00F0DABDAA
:103E380037B5184B93F838500F2805F10D05EDB23A
:103E480022D8072822D8032822D8012894BF002482
:103E5800012400234FF4C0711A46084600F058FEAA
:103E6800002300930A222946204600F0E1FF00F0D3
:103E7800D5FD09484FF4FA61FFF7F2FD064803B093
:103E8800BDE83040FFF74CBD0424E2E70324E0E737
:103E98000224DEE7440B0020940C002010B50C46E9
:103EA8002DED028B08EE102A00F076FE204601F078
:103EB80077FB00F0BFFDDFED0A7A0A48B8EEC88A42
:103EC80028EE278AFCEEC87A17EE901AFFF7C8FD8D
:103ED800BDEC028B0348BDE81040FFF721BD00BFD1
:103EE80000007A44BC0C002001F0AABA01F0D8BA4C
:103EF80008B501F00FFA033008BD000010B5002026
:103F080000F086FC044B1B682BB19B691BB1BDE814
:103F180010400020184710BD0C05002010B590B1C6
:103F28000A4B012219461C68A04206D39C68A0428D
:103F380003D201EBC202107910BD0132162A03F137
:103F48000803F0D1FEE71F20F6E700BFA0940008A1
:103F58000128074804D1074BC173197000F012BF3C
:103F6800C379012B03D1034B01721970F6E770472F
:103F7800440B002031000020002340F2422110B5FC
:103F88001A460446084600F0C3FD34B109482146E4
:103F9800FFF766FD0748FFF7C3FC074B1A7B2AB1FA
:103FA8006FF07F40BDE8104000F0EABC186980015E
:103FB800F8E700BFBC0C00200C05002000230221FC
:103FC80010B51A460446084600F0A2FD34B1094867
:103FD8002146FFF745FD0748FFF7A2FC064B1A7B71
:103FE8002AB16FF07F40BDE8104000F0DFBC1869CF
:103FF8008001F8E7BC0C00200C050020F7B5504CF8
:104008002379002B00F08A804E4D01F044F90023FB
:10401800237101F042F92B88D9070AD54A48FFF7DE
:10402800EFFC012000F0F4FB236813B11B6803B117
:1040380098472B889A0731D54448FFF7E1FC267B3F
:1040480096B9012000F0E4FB314640F6021001F079
:104058001BFA40F6441001F04BFA40F00200C1B2DE
:1040680040F6441001F010FA394E3A48FF220DF19B
:10407800070100F039FF304600F050FF23686BB1AC
:104088009F685FB12B885B0608D496F90D3096F9C6
:104098000C209DF807102F481A44B8472B8858065B
:1040A80009D5237B13B9012000F0B2FB236813B1B3
:1040B8001B6903B198472B8819060DD52648FFF7C9
:1040C8009FFC012000F0A4FB23682BB19B691BB166
:1040D8002888C0F3002098472B889A050ED500F051
:1040E80091FB04281CD11848FFF78AFC012000F036
:1040F8008FFB236813B15B6803B198472B889B0635
:104108000CD51248FFF77CFC237B13B9012000F083
:104118007FFB236813B1DB6803B1984703B0F0BD98
:1041280000F070FB0528E9D10848FFF769FC012079
:1041380000F06EFB2368002BE0D0DB68DCE700BFF3
:104148000C050020400B0020800B0020BC0C002038
:10415800A80C0020940B0020940C00200D4B10B5E7
:1041680004461875587500F017F85CB134214FF4FF
:10417800E86001F089F94421BDE8104040F241703F
:1041880001F082B914214FF4E86001F07DF924218F
:10419800F2E700BF0C05002008B5012000F022FD61
:1041A800054B187D5A7D824204D05875BDE80840F9
:1041B800FFF7D4BF08BD00BF0C050020012808B5D3
:1041C80006D0002000F00EFD034B00225A7508BDF2
:1041D800BDE80840FFF7E0BF0C050020F8B50D4624
:1041E80017461C46FFF7EAFF284600F0D5FC0020DA
:1041F800FFF7C2FE0120FFF74CFBFFF739FC002553
:10420800064630460021FFF755FCA94208BFA042E8
:1042180004D30124FFF700FE2046F8BD00F033FE6A
:1042280000B28742EDDA0024F4E737B5FFF7B4FFB0
:10423800002000F0A5FB002425460120FFF729FBFC
:1042480000F021FE00F00103A3400134202C45EAD0
:104258000305F2D100F0AEFE28440190FFF7DCFD23
:10426800019803B030BD00000A2838B50DD8084BB6
:1042780003EBC000D0E92C4501208840FCF7B4F9D5
:1042880022462B46FCF744FB38BD00240025F3E703
:10429800A0940008000000002DE9F04F85B01546F5
:1042A8009DF84C2000929DF85C209DF84470DFF842
:1042B8000092BDF8404089F80C20002A18BF00245D
:1042C800734ABDF83C80002F0E469DF8481008BF81
:1042D800FF2111708246934620B101286DD005B0A8
:1042E800BDE8F08FDFF8C0B100F0A9FB0B23304622
:1042F8008BF834308BF828A0CBF82C50FFF70EFE43
:10430800634A8BF8350041F60403ABF804301378A0
:104318008BF80830009B8BF800A0002B14BFF22309
:10432800012387F001078BF809304FEAC8080123F9
:104338008BF80A308BF80770ABF802808BF806A070
:10434800FFF7EEFC9BF82800003818BF0120FFF7A4
:1043580035FF0BF1280000F0BBFC584600F012FDB9
:104368004C4A1068516802AB03C302A800F077FA00
:1043780040F2FF1000F0A0FA2846FCF725F90246A3
:104388000B4600204449FCF7C3FA444B0022FCF7D3
:1043980095F9064620460F46FCF726F902460B46D5
:1043A80030463946FCF78AF93D4B0022FCF786F97E
:1043B800FCF746FCC9F8100091E70020019300F0D3
:1043C8003EFBE0B200F047FB364A374C019B84F8CD
:1043D80028A032445FFA85F992F8100184F83890E1
:1043E80084F8390084F83A3096BB0B3D012D33D858
:1043F8000123A9F10509994584F83BA0237039D810
:10440800B8F10B0F36D80C23A3819BF80030E37367
:10441800009B23749DF858306374A773FFF7BCFEA4
:10442800224800F055FC204800F0ACFC637C012BCE
:1044380040F2367021D101F05BF800F0FB0140F248
:10444800367001F021F81A4A4FF6FF73136146E7F8
:10445800012E01D10C2DCBD04946FFF705FF0AA349
:10446800D3E90023FCF7B0FBB0F1000A18BF4FF006
:10447800010ABDE7A4F80C80C7E701F039F840F05D
:104488000400C1B2DBE700BF000000A04761304074
:1044980031000020A89500080000F03F00002040EF
:1044A80000408F40A0940008440B00206C0B0020B3
:1044B8000C050020000000002DE9F74F0C9EBDF808
:1044C80038709DF83C809DF840A089469346054683
:1044D80048B1012845D040F6890001F009F840F0BC
:1044E8000400C1B283E0544C0B2284F8280018461B
:1044F80084F83420E662FFF711FD41F60403BAF1AF
:10450800000FA38014BFF22301236372FF0001236D
:1045180088F00108A37284F83500C4F830B025701B
:104528006780A57184F80780FFF7FAFB94F82800E4
:10453800003818BF0120FFF741FE04F1280000F001
:10454800C7FB204600F01EFC3C4A106851686B46C9
:1045580003C3684600F083F940F2FF1000F0ACF99D
:10456800B9E7374A344C1A4484F828005FFA86FBC6
:1045780092F810019DF8342084F838B084F8390096
:1045880084F83A20002B3FD10B3E012E40D801235E
:10459800ABF1050B9B4584F83B50237044D80B2F97
:1045A80042D80C23A381274B84F80E801B78E37331
:1045B8009DF84C30637484F810A0FFF7B1FB94F8B1
:1045C8002800003818BF0120FFF7F8FD1E4800F04A
:1045D8007FFB194800F0D6FB94F83930062B7FF49E
:1045E8007AAF40F6890000F083FF00F0FB0140F647
:1045F800890000F049FF484600F0D2FF149A134B97
:104608009A6003B0BDE8F08F012B01D10C2EBED00B
:104618005946FFF729FE06A3D3E90023FCF7D4FA8D
:10462800051E18BF0125B2E7A781BCE7AFF30080DC
:10463800000000A047613040440B0020A895000806
:10464800A0940008310000206C0B00200C0500200D
:104658002DE9F74F884628B101283DD0002003B046
:10466800BDE8F08F5A4A9FED5B6A5179538803EB96
:10467800D10307EE903AD379F8EEE77A002B07EEEC
:10468800108AF7EE006A08BFF0EE466A77EEA67A5F
:10469800B8EEC77A537A77EE877A022BB0EE007AB3
:1046A80018BFB0EE467A77EE877AB2EE007A67EEF8
:1046B800877A92ED0B7AB8EE477AC7EE876ADFED14
:1046C800467A66EEA77A17EE900AFBF79FFFFCF78B
:1046D800DBFEFCF7B5FAC2E7DFF8F4A09AF838B0C9
:1046E8009AF839005946FFF7BFFDBAF80C3007EEC3
:1046F800903AF8EEE77AB1EE017A77EE877A0446D7
:104708000D4617EE900AFBF781FF22462B46FBF772
:10471800D5FF9AF80E300646CBEB48089AF81000F9
:10472800012B08F1070808EB80080CBF14200020B3
:10473800C0EB88000F46FBF757FF9AF83B30002B79
:10474800804614BF02200020ABEB000080008946A1
:10475800FBF74AFF02460B4640464946FCF7D8F8A5
:10476800FCF78AFD02469AF83A0000F003000B466F
:104778000430CDE90023FBF737FFDDE90023FBF721
:104788009DFF0022002380468946FCF727FA18B9C6
:104798004FF000084FF00009104B002240464946F0
:1047A800FBF7D6FD22462B46FBF788FF32463B46F1
:1047B800FBF7CEFD04A3D3E90023FBF7C9FDFCF703
:1047C800DFFD86E7AFF30080000000E0CEF7EF3FA3
:1047D800440B00200000000000007A440000204044
:1047E80008B5064B01221A7100F0A7F9044B18808E
:1047F800BDE808404FF6FF7000F0D0BB0C05002064
:10480800400B0020014B1878704700BF240500209A
:10481800014B1870704700BF2405002010B50C4CE0
:10482800237813B12378062B03D100F0ABFD00F0F9
:10483800BDFE2378052B05D100F0B8FEBDE8104079
:1048480000F094BD2378042BF8D100F0B7FEF5E70B
:10485800240500200A460146002000F055BE08B590
:10486800014608224FF4D86000F0EAFD002008BD98
:1048780007B5074B5B7840BAADF804002BB90222A4
:1048880001A940F2BC6000F0DBFD03B05DF804FB59
:104898002405002007B5074B5B7840BAADF8040043
:1048A8002BB9022201A940F2BE6000F0C9FD03B095
:1048B8005DF804FB2405002010B50C4B5B7804461A
:1048C8009BB94FF4D76000F013FEC4F3002100F049
:1048D800FE0001434FF4D76000F0D6FDE1B240F28C
:1048E800B960BDE8104000F0CFBD10BD2405002020
:1048F80007B58DF8040000F061FE012201A98420AB
:1049080000F058FD024B00221A7003B05DF804FB5A
:104918002405002007B501228DF807000DF10701D5
:10492800802000F047FD9DF80720044B22B90122A2
:104938001A7003B05DF804FB0222F9E72405002091
:1049480007B5094B8DF8060004221A70030C8DF880
:1049580004300322030A01A983208DF8053000F0F2
:1049680029FD03B05DF804FB2405002010B51446AA
:10497800FFF770FF2046BDE81040FFF7E1BF0000D9
:1049880007B5094B8DF8060005221A70030C8DF83F
:1049980004300322030A01A982208DF8053000F0B3
:1049A80009FD03B05DF804FB2405002013B50C4B8A
:1049B80004460522962140F6AC001A7000F064FD0A
:1049C800230C8DF804300322230A01A982208DF8D4
:1049D80005308DF8064000F0EDFC02B010BD00BFB8
:1049E8002405002007B5030C8DF80030030A8DF864
:1049F80001300B0C49BA8DF80200ADF804100622FC
:104A0800694694208DF8033000F0D4FC024B06224E
:104A18001A7003B05DF804FB24050020002208B5D5
:104A28001146C52000F0C6FC014B07221A7008BDCC
:104A38002405002000221146D12000F0BBBC07B598
:104A480001228DF807000DF107019F2000F0B2FC4C
:104A580003B05DF804FB07B501228DF807000DF1DE
:104A68000701A02000F0A6FC03B05DF804FB07B521
:104A780001228DF807000DF10701962000F09AFC3D
:104A880003B05DF804FB0000134B984207B50BD93F
:104A98004EF6E113ADF80430022201A9982000F087
:104AA80089FC03B05DF804FB0C4B984202D94DF623
:104AB800D703EFE70A4B984202D94CF2C153E9E712
:104AC800084B984202D948F27513E3E7064B98421F
:104AD800E2D946F66B73DDE700E9A43580F8A93220
:104AE8008044E52D000B6B1B40FC541907B58DF86D
:104AF800062004228DF804008DF8051095200DEB92
:104B080002018DF8073000F055FC03B05DF804FB96
:104B180007B552BAADF8042040BA082249BAADF830
:104B28000000ADF802105BBA69461046ADF80630D1
:104B380000F040FC03B05DF804FB07B5022201A9B0
:104B4800122000F059FC9DF804009DF8053043EA56
:104B5800002003B05DF804FB07B501228DF80700BB
:104B68000DF107019D2000F025FC03B05DF804FB62
:104B780008B500F0A1FB00F0CFFB00F003FC00201B
:104B8800FFF7C8FE0120FFF7E7FF024B01221A706A
:104B980008BD00BF2405002037B5114DAB78044689
:104BA8001BB9FFF771FF0123AB702046FBF70CFD23
:104BB80009A3D3E90023FBF7ABFEFCF741F8042275
:104BC80000BA01900DEB0201862000F0F3FB03B060
:104BD80030BD00BFAFF30080000000008084EE3FCE
:104BE8002405002007B5064B8DF8070058700122F0
:104BF8000DF107018A2000F0DDFB03B05DF804FB2E
:104C080024050020014B5878704700BF2405002078
:104C180037B5044600200D4600F0C5FC01280346C0
:104C280020D10F2C02464FF000010CBF06200420B3
:104C3800FFF75CFF6FF002008442B8BF04460E2CF9
:104C4800A8BF0E24182140F6E70000F01DFC022240
:104C580001A98E208DF804408DF8055000F0AAFBBC
:104C680003B030BD40F6D80000F042FC40F01E0012
:104C7800C1B240F6D80000F007FC134B18780228A0
:104C880018D0032806D0012818D103460022052190
:104C9800032003E00221012300220846FFF726FF34
:104CA8006FF002008442B8BF0446162CA8BF162431
:104CB8003821C8E7012300220321EFE7012300225E
:104CC80007210420EAE700BF3505002000000000A6
:104CD80013B5294A0446516810686B4603C3274B2D
:104CE80020785B78834201D0FFF77CFF23781BB1E3
:104CF800012B35D002B010BD6068FBF765FC024699
:104D08000B4619A1D1E90001FBF702FE00221C4B5A
:104D1800FBF7D4FCFBF794FF030C8DF80030030A73
:104D28008DF80130237B8DF802008DF80330A068E0
:104D3800637B8DF80430FBF747FC0DA3D3E9002310
:104D4800FBF7E6FDFBF77CFF030C40BA8DF8053056
:104D5800ADF80600082269468B2000F02BFBC9E756
:104D6800236900930422F6E70000000080847E4156
:104D7800000000008084EE3F2896000824050020EB
:104D8800000040401FB5284A044651681068127A4E
:104D980001AB03C31A70254B20785B78834201D09E
:104DA800FFF720FF23781BB1012B31D004B010BDD1
:104DB800637AF12B20D14FF6FF70FFF759FD48F2C7
:104DC8000500FFF767FD02236288A188ADF8061089
:104DD80052BAE188ADF804208DF80B30227AA37A14
:104DE8008DF80A20ADF808108DF80C30092201A9B9
:104DF8008C2000F0DFFAD9E7F22BE5D141F60F500D
:104E0800FFF736FD41F22100FFF744FD0623DBE7FB
:104E1800A3895BBAADF80430E389ADF80630238A7C
:104E2800ADF808300622E2E7309600082405002095
:104E380013B5049C8DF80330230C8DF800008DF811
:104E480001108DF802208DF804300522230A6946E6
:104E580088208DF805308DF8064000F0ABFA024B3B
:104E680007221A7002B010BD2405002007B50222DF
:104E78008DF804008DF805108F2001A900F09AFA2A
:104E880003B05DF804FB07B5012201A9152000F065
:104E9800B3FA9DF804004042401003B05DF804FBEB
:104EA80037B504460D46022201A9132000F0A4FAE2
:104EB8000C4B5B78012B11D140F2047000F018FB09
:104EC800C0F3C710012809D140F2027000F010FBAE
:104ED80020709DF805302B7003B030BD9DF804306C
:104EE8002370F6E724050020F7B50D460646002492
:104EF8000DF10701284617468DF80740FFF7D0FF48
:104F08002A78BA4207D89DF80700314600F020FBFE
:104F1800204603B0F0BD0120FBE7000013B50322D3
:104F2800044601A9142000F067FA1B4A5178217041
:104F380049B1012917D0142200212046FCF716F99F
:104F48000F2323700DE09DF8043023719DF8053080
:104F5800A1605B425B10A3719DF806305B425B1059
:104F6800637102B010BD9DF804309DF905105B42D5
:104F78005B1023739DF805300029B6BFA3F5807335
:104F88009B089B1063739DF806305B425B10A3730C
:104F980053682361E5E700BF2405002007B5022216
:104FA80040BAADF8040001A9104600F003FA03B0B6
:104FB8005DF804FB074B0849186843F2390201FB06
:104FC800002018606FF00043B0FBF3F3C3EBC3732A
:104FD800C01A7047340000206D4EC641014B18605E
:104FE800704700BF3400002038B505460C46FFF76F
:104FF800E1FF611B013190FBF1F303FB1100284431
:1050080038BD01380A44914200D1704711F8013B7C
:1050180000F8013FF7E710440A44914200D1704775
:1050280011F8013B00F8013DF7E70244904200D136
:10503800704700F8011BF9E710B5094C23786BB9E4
:10504800FDF79FFF01210320FEF726F90120FDF758
:10505800B1FF044B02221A600123237010BD00BF68
:105068002C05002000E100E070B5052886B038BFA7
:10507800052003AC05462046FDF7CEFF94E807005F
:105088001A4C6B4683E8070084E807000020FDF708
:10509800A1FFFEF7FBF80228284614BF4FF400468C
:1050A8004FF4FA46FBF790FA044630460D46FBF7F4
:1050B8008BFA02460B4620462946FBF7FFFA0C4BB3
:1050C8000022FBF725FCFCF76BFAFBF7F1FDFEF776
:1050D80061F80120FDF78EFF0120FDF77BFF01211C
:1050E8001020FEF73BF806B070BD00BFD00C0020C2
:1050F80000408F4008B50020FDF76CFFBDE8084070
:1051080000211020FEF72AB8014BD3E900017047AF
:10511800E00C00202DE9F04F89B005A8FDF77CFFD1
:105128009DF81830BDF814109DF817009DF819C0A7
:105138009DF81AE03B4F00261A4600259DF81B30C3
:1051480003930024CDE90056079B374E0293A1F53F
:10515800FA68A246A34625B245451FFA84F917DB2B
:1051680011F0030100F1FF3059D0304D304E0024CA
:10517800E1B2814204F101042BDA2944DDE9007827
:10518800097B71437F1848F10008CDE90078EFE703
:10519800009B15B119F0030F07D19B190093019BD0
:1051A80043EB0A0301930134D5E7DB190093019B14
:1051B80043EB0B03F6E7DDE900782C5D74433F19F8
:1051C80048F10008CDE90078CCB2844201F1010130
:1051D800F1DB3C24AEFB04454FF46161E1FB0C4577
:1051E800039B1349501EE41801FB00F1009B45F195
:1051F80000056418019945F100054FF47A70E2182A
:1052080045EB0101A2FB002300FB01330299B1FB2E
:10521800F0F0101843F1000109B0BDE8F08F034D1C
:10522800034ED1E78033E1010085E2013996000899
:105238008051010038B5FFF76DFF034B04460D465A
:10524800C3E9004538BD00BFE00C002008B5FFF7F2
:1052580061FF034AD2E90032C01A61EB020108BDBE
:10526800E00C002008B51020FDF75CFF90B100208D
:10527800FDF7B0FE00211020FDF770FF002110207F
:10528800FDF738FFFEF788FBBDE808400121102034
:10529800FDF764BF08BD72B6704762B6704700007C
:1052A800044B9860DA6802F01102012AFAD1986872
:1052B800C0B270470090004010B5134C4FF4007313
:1052C800C4F800310723236002232361D4F8043192
:1052D800802B0BD01420FDF737FE0023C4F80C31C7
:1052E8001420FDF731FE0123C4F80C31064B0748A2
:1052F80002225A60064B4FF400121A60BDE81040B3
:1053080003220B21FDF7DCBD0090004000FC0140AA
:1053180000E100E00520704710B5134CD4F80431C3
:1053280023F02003C4F804316420FDF70DFED4F8FF
:10533800043143F02003C4F80431D4F8043123F0D5
:105348008003C4F80431D4F8003143F02003C4F8D2
:105358000031D4F8043143F00103C4F80431D4F81F
:105368000831DB05FBD410BD0090004008B50A20C9
:10537800FDF7EAFD024AD2F80831DB05FBD408BD87
:105388000090004038B572B6094C0025C4F80C519D
:105398001420FDF7D9FDC020FFF782FF2846FFF74C
:1053A8007FFF0123C4F80C31FFF7E0FF62B638BD78
:1053B80000900040F8B50F4F0C4615460646FFF71B
:1053C8002DFA0023C7F80C313046FFF769FF254452
:1053D800AC4208D10123842EC7F80C3108D0BDE8AF
:1053E800F840FFF7C3BF14F8010BFFF759FFEFE7C9
:1053F800F8BD00BF0090004073B5104E01901546EF
:105408000C46FFF70BFA0021C6F80C110198FFF7BC
:1054180047FF0846FFF744FF2544AC4207D1012364
:10542800C6F80C3102B0BDE87040FFF79FBF0020FE
:10543800FFF736FF04F8010BEFE700BF00900040CC
:10544800F8B5104E0C4615460746FFF7E7F9002356
:10545800C6F80C310D20FFF723FF380AFFF720FFAD
:10546800F8B2FFF71DFF2544AC4206D10123C6F868
:105478000C31BDE8F840FFF779BF14F8010BFFF7CE
:105488000FFFF1E70090004007B501228DF80710E3
:105498000DF10701FFF7D4FF03B05DF804FB00002E
:1054A800F8B5124E154607460C46FFF7B7F9002126
:1054B800C6F80C111D20FFF7F3FE380AFFF7F0FEBF
:1054C800F8B2FFF7EDFE0846FFF7EAFE2544AC42C6
:1054D80006D10123C6F80C31BDE8F840FFF746BFF6
:1054E8000020FFF7DDFE04F8010BF0E70090004014
:1054F80007B501220DF10701FFF7D2FF9DF807005C
:1055080003B05DF804FB0000F8B5154607460E46E3
:10551800FFF784F90D4B0024C3F80C410E20FFF768
:10552800BFFE3846FFF7BCFEADB2A3B29D4207D816
:10553800064B0122C3F80C21BDE8F840FFF716BF5F
:10554800305DFFF7ADFE0134EFE700BF009000408B
:10555800F8B515460E460746FFF760F90F4B0024CD
:10556800C3F80C411E20FFF79BFE3846FFF798FE54
:105578002046FFF795FEADB2A3B29D4207D8074B70
:105588000122C3F80C21BDE8F840FFF7EFBE002068
:10559800FFF786FE30550134EEE700BF009000406B
:1055A8000221FFF735BB02207047000002480322A2
:1055B8000A21FDF767BB00BF00F001400248042242
:1055C8000A21FDF75FBB00BF00F0014008B5084B9A
:1055D800002218601A71581D064B1860064B1422D9
:1055E800FF211860FFF721FD044B01221A7008BD46
:1055F80038050020EC0C0020F00C0020E80C0020FE
:1056080030B50E4B1C79042C15D80D4905780A685D
:10561800157045785570C078D0700020907003F1EF
:105628001500824204F101041C7114BF131D0533D7
:105638000B60012030BD0020FCE700BF38050020CA
:10564800F00C0020074B187950B1074A013811684F
:105658001871581D814214BF0B1F153313600120A8
:10566800704700BF38050020F00C0020074B187960
:1056780058B1074A01381168187103F115008142C1
:1056880014BF0B1D05331360012070473805002037
:10569800EC0C002030B50B4A13796BB10A4B0B4C5C
:1056A8001B68246815321D788D4206D093420CBFC2
:1056B800074B04339C42F6D130BD012258709A70D2
:1056C800FAE700BF38050020EC0C0020F00C0020A1
:1056D8003D05002010B50A4A13796BB1094B0A49F8
:1056E8001B68096815321C78844207D093420CBFA6
:1056F800064B04339942F6D1012010BD5878FCE7D7
:1057080038050020EC0C0020F00C00203D0500209E
:1057180030B50B4A0B4B10700B4A1B68117969B1F5
:105728000A49096801241532DD78587005B99C705A
:1057380093420CBF064B04339942F5D130BD00BFEC
:10574800E80C0020EC0C002038050020F00C0020AC
:105758003D050020014B1878704700BFE80C002079
:1057680010B5094B094A1B68126809491C7884421C
:1057780007D08B420CBF074B04339A42F6D1002066
:1057880010BD0120FCE700BFEC0C0020F00C00204D
:105798004D0500203D0500202DE9F743144DDFF8A5
:1057A800549095F8048004460026F3B2984502D830
:1057B80003B0BDE8F083D9F80030197821705A7821
:1057C80062709F785FB12B6820469B689847FFF707
:1057D8004DFF17B901A8FFF713FF0136E5E7DB789E
:1057E8008DF804108DF805208DF80730EFE700BF1D
:1057F80038050020EC0C0020014B1879704700BFD9
:1058080038050020034B1879042894BF0020012094
:10581800704700BF38050020044B04221A70044A60
:10582800137843F010031370704700BF5805002029
:10583800F40C002038B55D4C237E0238C3F1800398
:10584800DBB2112800F2AE80DFE800F009132B3339
:1058580041555C656DACAC73ACAC7E8B9AA4627E32
:105868009A4280F0A180531C6376224402239376E7
:105878000DE0627E013B9A4280F29680A3180320D5
:105888009876931C013254FA82F26376917694F8F2
:105898009B00012384F89A3010B1FFF7BDFF002068
:1058A80038BD627E9A427FD2531C63762244042319
:1058B800DDE7627E013B9A4276DAA31805209876E6
:1058C800931C013254FA82F26376917610E0607E7E
:1058D800023B984268DA231806259D76431C54FA41
:1058E80083F39976C31C023054FA80F0637682768B
:1058F800FFF792FFCBE7627E013B9A4254DAA31886
:105908000720BDE7627E9A424ED2531C224463763A
:1059180008239376ECE7627E9A4245D2531C63765D
:1059280022440923A3E7627E9A423DD2A3180A20A3
:10593800C5E794F91920637E002A35DB5A1C627684
:1059480023440D229A76A2E7637E7E2B2CD8E21898
:10595800102090769A1C013354FA83F36276997674
:1059680095E794F91920637E002A1DDBE2181120BF
:1059780090769A1C013354FA83F362769976B7E7E6
:1059880094F91920637E002A0EDB5A1C62762344A0
:105998001222D7E794F91920637E002A04DBE21863
:1059A8001320E5E702207BE7012079E7580500206E
:1059B80070B51E4B1E4C1F481F4D012101704170D0
:1059C8008170A3F8B0102188298094F8211085F8F7
:1059D8002110D4E9090105F1240686E80300A18D08
:1059E800A9850022216B2963C3E92822616B6963B9
:1059F800D3F8B41083F89C20C3F8A82083F8AC200F
:105A080083F8AD2083F8AE205A761A7683F8B22050
:105A180083F89B2083F89A2021B983F8B81083F87B
:105A2800B91070BD4A62896BF6E700BF58050020BF
:105A3800F80C002038000020340D002037B5144B36
:105A48008DF80110144693F82C2093F838308DF80F
:105A58000220092205468DF8002013B10A238DF88B
:105A680000300C4B694693F8BA0002F071FC83B21F
:105A780060198342A2B202D23CB19A4205D8FF28EB
:105A88008CBF0020012003B030BD0020FBE700BF21
:105A9800340D00205805002010B50E4C04F1BC0050
:105AA800FDF7AEFF94F8B220234642B1012284F8F4
:105AB800AD20D4F8D02022F00402C4F8D02093F806
:105AC800D430022B01BF044A137843F0200313702B
